:040000000128F82FAC
:1008B600F0002000111E5C2C700823009A0008002E
:1008C600F00020001110960197017008031D702C8E
:1008D6008C1E0800111808006B2C8C1A08001118C1
:1008E6000800702C2000A001A101791C7F2C7B0838
:1008F6002000A0077C08A13D0130FB35FC0D890BCB
:10090600802C0130FA36F90C890B852C79087A048B
:10091600031D782C20002108FA002008F9000800A1
:1009260021008C1222008C121A30F200F830F100ED
:10093600F10B9B2CF20B9B2C000021008C16003037
:1009460063242000111CA92C013008000130632407
:100956002000111CB02C0130080000306324200058
:10096600111CB72C01300800003008002100991333
:1009760019088739683899001908FC39023899002E
:1009860023008C0121001D102200981391133F3083
:1009960020009805CF3098051815991318142300D0
:1009A6001E139E161E121E159D171D131D169D1134
:1009B6001F109F1567309B009C0121001A1A080022
:1009C600E02C7808790403190B2DFD01FD0AF91BAB
:1009D600F62C0130F835F90D890BED2C0130FC00B1
:1009E6007C08FD07EA2C79087B02031DFC2C78089D
:1009F6007A02031C022D7808FA027908FB3B0130C3
:100A0600F936F80C890B032D0130FD02031DF62C77
:100A16007B08F9007A08F8000800F501F60170086D
:100A2600710403193F2DF701F70AF11B242D01303C
:100A3600F035F10D890B1B2D0130F4007408F70712
:100A4600182D0130F535F60D890B252D7108730229
:100A5600031D2F2D70087202031C362D7008F2023A
:100A66007108F33B75140130F136F00C890B372D04
:100A76000130F702031D242D7608F1007508F000F9
:100A86000800F601F11F4E2DF009F109F00A0319CD
:100A9600F10AF601F60AF31F592DF209F309F20AD3
:100AA6000319F30A0130F4007408F606F701F80199
:100AB600700871040319882DF501F50AF11B6D2DD7
:100AC6000130F035F10D890B642D0130F400740806
:100AD600F507612D0130F735F80D890B6E2D71087C
:100AE6007302031D782D70087202031C7F2D700897
:100AF600F2027108F33B77140130F136F00C890BE2
:100B0600802D0130F502031D6D2D76080319902DF9
:100B1600F709F809F70A0319F80A7808F1007708BF
:100B2600F00008008030F3007308F600F501F701C5
:100B36009324F3007308F70077080319A42D7708A8
:100B46000800F901053079020318E32D8030F3001F
:100B56007308F60079083D3E860087018101F80199
:100B6600083078020318DB2D01306324003063243B
:100B760020001608F3007308F50033307502031CD5
:100B8600D22D79083D3E8600870101087604F300E0
:100B960079083D3E86008701730881000310F60C34
:100BA6000130F3007308F80708307802031CB72DEC
:100BB6000130F3007308F90705307902031CA92DEB
:100BC60020003E083F0740073D07F3007308F40086
:100BD600410874060319F12D0230080000300800A0
:100BE600013400340A34003464340034E834033405
:100BF600103427344534723472346F3472343A34D4
:100C0600203452346534733470346F346E34733434
:100C160065342034543469346D3465346F34753436
:100C260074340A340D34003452342E3420344834AB
:100C360075346D34693464346934743479343A34CF
:100C46002034253475342E34253475342034253437
:100C560025340A340D3400342D342D342D342D34FE
:100C66002D342D342D342D342D342D342D342D3476
:100C76002D342D342D342D342D342D342D340A3489
:100C86000D3400344534723472346F3472343A346D
:100C96002034423461346434203443346834653457
:100CA60063346B34733475346D340A340D34003464
:100CB600543465346D34703465347234613474344C
:100CC6007534723465343A3420340034253475343E
:100CD6002E3425347534203443340A340D3400342C
:100CE6002D34003424302000A8002808AD00200050
:100CF6002308A9002208A800A20A0319A30A2808A3
:100D06008400290885000008AA002A08B1003108D5
:100D160003190800253031060319942E31085B2487
:100D26007A2E2000AC01A02E31085B247A2EC0302A
:100D36002000A8002808AC04B42E2308A900220825
:100D4600A800A20A0319A30A280884002908850016
:100D56000008B100003A0319162F753A03199A2EA6
:100D6600972E2D0886008701403FAE00413FAF0019
:100D76000230A8002808AD07B101B10A05303106D6
:100D86000319E42E3108A800A901A835A90DF330EE
:100D9600280784008530293D8500003FAA00013FD1
:100DA600AB002B082F02031DDA2E2A082E02031C85
:100DB600E42E0130A8002808B10705303106031DCE
:100DC600C52E3108A8002808B000FF302000A80072
:100DD6002808B007300A03197A2E0A30F8000030C6
:100DE600F9003008A800A901A835A90DF330280795
:100DF60084008530293D8500003FF000013FF10069
:100E06002F08F3002E08F20010257108FB00700869
:100E1600FA00E4247808303E2000AA002A08B1002F
:100E260031085B24E82E0800B9242000BB01BC0170
:100E3600B901BA01B70195252000B2003208B70002
:100E4600CD2F4530A2008630A3007526D92FFD3060
:100E56002000A2008530A3007526D92F20003E0869
:100E6600B200B3013D08B400B5013408B500B401C1
:100E760032083404B90033083504BA004008B20019
:100E8600B3013F08B400B5013408B500B401320817
:100E96003404BB0033083504BC00BC1F572F421472
:100EA600FF30BB057F30BC051730A2008630A3009B
:100EB6000A30F0000030F1003A08F3003908F20079
:100EC600442571082000A5007008A4000A30F0002F
:100ED6000030F1003A08F3003908F20044257108A1
:100EE600FA007008F9000A30FB000030FC00752497
:100EF60079092000B2007A09B300B20A0319B30ACD
:100F060039083207A6003A08333DA70075265B303C
:100F16002000A2008630A30075262000421C982FD0
:100F26007330A2008630A300752669302000A20027
:100F36008630A3000A30F0000030F1003C08F300D0
:100F46003B08F200442571082000A5007008A400A3
:100F56000A30F0000030F1003C08F3003B08F200D4
:100F660044257108FA007008F9000A30FB000030C9
:100F7600FC00752479092000B2007A09B300B20A90
:100F86000319B30A3B083207A6003C08333DA70005
:100F96007526D92F20003708003A0319312F013A58
:100FA60003192A2F033A0319242FD92F2F30200093
:100FB600A2008630A30075262000B8010F30380243
:100FC6000318182F0230B4000430B300BA30B20050
:100FD600B20BEB2FB30BEB2FB40BEB2F0000013052
:100FE6002000B2003208B807E12FC201BD01BE01E0
:0A0FF600BF01C001C1012000172F48
:020000040001F9
:04000E00C4CFFFDC80
:00000001FF
